:020000040800F2
:10000000005000202D07000805050008070500081E
:10001000090500080B0500080D0500080000000098
:100020000000000000000000000000000F050008B4
:100030001105000800000000130500081505000860
:1000400075070008750700087507000875070008A0
:100050007507000875070008750700087507000890
:100060007507000875070008750700087507000880
:100070007507000875070008750700087507000870
:100080007507000875070008750700087507000860
:100090007507000875070008750700087507000850
:1000A0007507000875070008750700087507000840
:1000B0007507000875070008750700087507000830
:1000C0007507000875070008750700087507000820
:1000D0007507000875070008750700087507000810
:1000E0007507000875070008750700080000000084
:1000F0000000000000000000000000000000000000
:0C01000000000000000000005FF808F1A3
:100110004A0011D212F5001211D20DD56FF4787386
:10012000B3EB62520ED44FEAC12343F0004343EADB
:10013000505323FA02F070474FF00000704750EA26
:10014000013002D14FF0FF3070474FF00000704790
:100150000348044B834202D0034B03B11847704756
:100160001000002010000020000000000548064B91
:100170001B1AD90F01EBA301491002D0034B03B1A5
:1001800018477047100000201000002000000000F9
:1001900010B5064C237843B9FFF7DAFF044B13B1CF
:1001A0000448AFF300800123237010BD100000202D
:1001B00000000000F820000808B5054B1BB10549F8
:1001C0000548AFF30080BDE80840FFF7CFBF00BF90
:1001D0000000000014000020F820000884B00F4B3D
:1001E0009A6942F020029A619A6902F02002019213
:1001F000019A9A6942F004029A619A6902F0040233
:100200000292029A9A6942F008029A619B6903F08D
:1002100008030393039B04B0704700BF0010024023
:1002200008B50B480B4B03600B4B43600023836006
:10023000C3604FF48042026143618361C361036222
:1002400000F002FE00B908BD00F03AF8FBE700BF7D
:100250002C00002000540040801A060010B586B023
:10026000002302930393049305930268114B9A426F
:1002700001D006B010BD104CA36943F00803A36180
:10028000A36903F008030093009BC0230293122389
:1002900003930323059302A9084800F035FBE369A3
:1002A00043F40013E361E36903F400130193019B3A
:1002B000DFE700BF0054004000100240000C014086
:1002C00072B6FEE700B591B02822002106A801F021
:1002D00033FE0023019302930393049305930122B9
:1002E00006924FF4803307930A9202220D920E93E6
:1002F0004FF4E0130F9306A800F056FF80B90F23C8
:10030000019302210291002303934FF4806204922F
:10031000059301A801F07AF920B911B05DF804FB4A
:10032000FFF7CEFFFFF7CCFF08B500F04BFAFFF761
:10033000C9FFFFF753FF00F031F9FFF771FF00F03D
:10034000A1F9142000F062FA00F024F800F082F81D
:1003500003A1D1E9000100F0A1F8F9E7AFF30080B3
:100360000000000000207C4000B585B000238DF81F
:100370000C308DF80D004FF0FF330093022303AAD9
:100380007821034800F03EFE05B05DF804FB00BF95
:100390002C00002008B5AE20FFF7E6FF2020FFF775
:1003A000E3FF1020FFF7E0FFB020FFF7DDFFC820DC
:1003B000FFF7DAFF0020FFF7D7FF1020FFF7D4FF89
:1003C0004020FFF7D1FF8120FFF7CEFFFF20FFF78E
:1003D000CBFFA120FFF7C8FFA620FFF7C5FFA8208D
:1003E000FFF7C2FF3F20FFF7BFFFA420FFF7BCFFCE
:1003F000D320FFF7B9FF0020FFF7B6FFD520FFF7A6
:10040000B3FFF020FFF7B0FFD920FFF7ADFF2220A8
:10041000FFF7AAFFDA20FFF7A7FF1220FFF7A4FFDC
:10042000DB20FFF7A1FF2020FFF79EFF8D20FFF7C5
:100430009BFF1420FFF798FFAF20FFF795FF8D205B
:10044000FFF792FF1420FFF78FFFAF20FFF78CFF1D
:1004500008BD000000B587B0B020FFF785FF02207F
:10046000FFF782FF1020FFF77FFF0A4B0DF1080C0A
:100470000FCBACE807008CF800304FF0FF3300934F
:100480000D2302AA7821044800F0BCFD07B05DF8F6
:1004900004FB00BF102100082C00002070B50446AA
:1004A0000D46064E0021304601F0FEFB3668204620
:1004B0002946FFF72DFE706370BD00BF800000204D
:1004C00082B00E4B9A6942F001029A619A6902F079
:1004D00001020092009ADA6942F08052DA61DB6927
:1004E00003F080530193019B054A536823F0E063B6
:1004F00043F00073536002B0704700BF0010024029
:1005000000000140FEE7FEE7FEE7FEE7FEE770477A
:100510007047704708B500F067F908BD70470000E4
:100520000268094B9A4200D0704782B003F56443D9
:100530009A6942F400629A619B6903F40063019333
:10054000019B02B0704700BF002C014000B587B08E
:100550000023029303930493059302680D4B9A4280
:1005600002D007B05DF804FB03F564439A6942F0DA
:1005700004029A619B6903F004030193019B4FF409
:100580008073029302230393059302A9024800F0AB
:10059000BBF9E6E7002C01400008014010B596B019
:1005A00000241294139414941594109411940994A3
:1005B0000A940B940C940D940E940F9420222146CF
:1005C00001A801F0B9FC2D482D4B03604F23436077
:1005D000846044F24F63C36004614461802383619B
:1005E00001F0D4F9002837D14FF48053129312A9A7
:1005F000224801F0CBFA002831D1204801F0F2F96D
:1006000000282FD100231093119310A91B4801F04B
:10061000B9FB50BB6023099300220A920B920C9203
:100620000D920E920F9209A9144801F035FAF8B90B
:100630000023019302930393049305934FF4005214
:100640000692089301A90D4801F0D2FB98B90B4816
:10065000FFF77CFF16B010BDFFF732FEC4E7FFF7CF
:100660002FFECAE7FFF72CFECCE7FFF729FED1E704
:10067000FFF726FEDCE7FFF723FEE8E78000002017
:10068000002C014008B50A480A4B03604FF4E133DF
:10069000436000238360C36003610C224261836175
:1006A000C36101F019FC00B908BDFFF709FEFBE7C3
:1006B000C80000200044004010B586B0002302931B
:1006C0000393049305930268164B9A4201D006B037
:1006D00010BD03F5E633DA6942F40032DA61DA6913
:1006E00002F400320092009A9A6942F004029A6180
:1006F0009B6903F004030193019B042302930223EB
:10070000039303230593084C02A9204600F0FCF84C
:100710000823029300230393049302A9204600F0C8
:10072000F3F8D4E70044004000080140FFF7F6FE6C
:100730000B480C490C4A002302E0D458C45004333F
:10074000C4188C42F9D3094A094C002301E0136014
:100750000432A242FBD301F03FFCFFF7E5FD7047F6
:100760000000002010000020582100081000002088
:10077000AC020020FEE7000010B504460E4B1A78CC
:100780004FF47A73B3FBF2F30C4A1068B0FBF3F04A
:1007900000F0A6F868B90F2C01D901200AE0002268
:1007A00021464FF0FF3000F08BF8054B1C60002015
:1007B00000E0012010BD00BF040000200000002068
:1007C0000800002008B5074A136843F010031360BF
:1007D000032000F063F80F20FFF7CEFFFFF770FE55
:1007E000002008BD00200240034A1168034B1B781B
:1007F0000B441360704700BF10010020040000206C
:10080000014B1868704700BF1001002038B504463E
:10081000FFF7F6FF0546B4F1FF3F02D0044B1B780B
:100820001C44FFF7EDFF401BA042FAD338BD00BFC8
:1008300004000020002808DB0901C9B200F1604073
:1008400000F5614080F80013704700F00F000901C7
:10085000C9B2014B1954704714ED00E000B500F027
:100860000700C0F1070CBCF1040F28BF4FF0040CC7
:10087000031D062B0FD9C31E4FF0FF3E0EFA0CF0DE
:1008800021EA000199400EFA03FE22EA0E0241EA33
:1008900002005DF804FB0023EEE70000074AD3687E
:1008A00023F4E0631B041B0C000200F4E06003432C
:1008B00043F0BF6343F40033D360704700ED00E0C2
:1008C00010B50446054BD868C0F30220FFF7C6FFF9
:1008D00001462046FFF7AEFF10BD00BF00ED00E06F
:1008E0000138B0F1807F0BD24FF0E0235861054A08
:1008F000F02182F823100020986107221A617047C6
:100900000120704700ED00E070B582B00024A446DD
:10091000A1E07E4DAB4214D00CD8A5F58015AB42BA
:100920000FD005F57025AB420BD0A5F58015AB4275
:1009300010D106E0764DAB4203D005F58035AB42D1
:1009400008D18B68002B50D0012B49D0426108247C
:1009500000E0CC68BEF1FF0F49D806464FEA8C0292
:1009600033680F25954023EA050304FA02F2134386
:1009700033604B6813F0805F6BD0664B9A6942F02E
:1009800001029A619B6903F001030193019B4FEA05
:100990009C02951C604B53F825600CF00305AD00DC
:1009A0000F23AB4026EA03065C4B984226D003F5A2
:1009B0008063984200F08C8003F58063984200F0D9
:1009C000898003F58063984216D0042317E0CC6831
:1009D0000434BFE7CC680834BCE7CC680C34B9E712
:1009E00002610824B6E70024B4E70424B2E7061D38
:1009F000ACF108029200B3E7032300E00023AB4010
:100A000033430232444D45F822304B6813F4801FC3
:100A100062D0434A936843EA0E0393604B6813F431
:100A2000001F5FD03E4AD36843EA0E03D3604B6891
:100A300013F4003F5CD03A4A536843EA0E03536014
:100A40004B6813F4803F59D0354A136843EA0E03CC
:100A500013600CF1010C0B6833FA0CF254D0012234
:100A600002FA0CF203EA020E32EA0303F1D14B68F8
:100A7000122B3FF64EAF122B3FF66CAF01A555F887
:100A800023F000BF4309000853090008D5090008F6
:100A9000E70900085509000855090008550900082C
:100AA00055090008550900085509000855090008AE
:100AB000550900085509000855090008550900089E
:100AC0005509000855090008CF090008DB0900088E
:100AD000012394E7022392E7114A936823EA0E0365
:100AE00093609BE70E4AD36823EA0E03D3609EE728
:100AF0000B4A536823EA0E035360A1E7084A1368C0
:100B000023EA0E031360A4E702B070BD00002210B8
:100B100000003110001002400000014000080140B8
:100B20000004014003685A6912F4806F01D100206B
:100B300070476FF480625A6100230363202280F8BB
:100B40003D2080F83E30026C42F00402026480F8DE
:100B50003C30012070472DE9F04106460C4617460F
:100B600098463BE0FFF74CFE069BC01A404502D872
:100B7000B8F1000F32D1012D18D033689B6924EAF7
:100B800003039BB2B3FA83F35B099F4226D1002390
:100B90003363202286F83D2086F83E30326C42F0E6
:100BA0002002326486F83C30012027E033685B691C
:100BB00024EA03039BB2B3FA83F35B09E5E73368E6
:100BC0005B6924EA030C1FFA8CFCBCFA8CFC4FEA2C
:100BD0005C1C674511D1B8F1FF3FC3D1C4F3074591
:100BE000012DECD033689B6924EA030C1FFA8CFCBE
:100BF000BCFA8CFC4FEA5C1CEBE70020BDE8F081FE
:100C00002DE9F84305460E469046994653E01A688A
:100C100042F400721A602B686FF480625A610023FC
:100C20002B63202285F83D2085F83E302A6C42F067
:100C300004022A6485F83C3001204AE0FFF7E0FD19
:100C4000A0EB0900404502D8B8F1000F33D1012FC5
:100C500017D02B689B6926EA03039BB2003B18BFA1
:100C6000012343B300232B63202285F83D2085F820
:100C70003E302A6C42F020022A6485F83C30012084
:100C800027E02B685B6926EA03039BB2003B18BF91
:100C90000123E6E72B689C6926EA0404A4B2003C21
:100CA00018BF0124A4B12B685A6912F4806FAED129
:100CB000B8F1FF3FC2D1C6F30747012FEAD12B6835
:100CC0005C6926EA0404A4B2003C18BF0124E9E7E9
:100CD0000020BDE8F8830000F0B583B004460D465F
:100CE00016461F46C36A082B0DD0012B0BD013F5F7
:100CF000803F08D0036B122B0AD10268136843F4BB
:100D00008073136004E02268136843F480731360F7
:100D10000097334600224FF001112046FFF71BFFDA
:100D200080B92369B3F5804F16D1236805F0FE051D
:100D30001D613B46324613492046FFF761FFF8B973
:100D400003B0F0BD23681B6813F4807F02D04FF41A
:100D5000007323640320F3E7EB11226803F006031A
:100D600043F0F00313613B46324607492046FFF744
:100D700047FF18B92368EDB21D61DAE70120DFE70C
:100D80000120DDE7020001000800010070B5044603
:100D90000D46164623685B6913F0800F21D120466B
:100DA000FFF7C0FEF8B9B5F1FF3FF3D0FFF728FD1C
:100DB000801BA84201D8002DECD123685B6913F099
:100DC000800FE7D100232363202284F83D2084F89C
:100DD0003E30226C42F02002226484F83C30012034
:100DE00000E0002070BD0120FCE770B504460D4610
:100DF000164623685B6913F0040F21D12046FFF7E4
:100E000091FEF8B9B5F1FF3FF3D0FFF7F9FC801B75
:100E1000A84201D8002DECD123685B6913F0040FC0
:100E2000E7D100232363202284F83D2084F83E305C
:100E3000226C42F02002226484F83C30012000E061
:100E4000002070BD0120FCE7002800F0CC8070B5C8
:100E5000044690F83D30002B77D0242384F83D30B1
:100E60002268136823F0010313602268136843F4B7
:100E7000004313602268136823F40043136000F0FA
:100E800081FC62685A4B9A4264D85A4B98428CBF94
:100E900000230123002B40F0A8805749A1FB00311B
:100EA0008B0C25686A6822F03F0242EA91426A6030
:100EB00021680A6A22F03F0266684D4DAE424FD863
:100EC000013313430B622168CA6922F44F4222F0B6
:100ED000FF026568464B9D424CD8431E6D00B3FB34
:100EE000F5F3013340F6FC70034278D0C3F30B03F3
:100EF0001A43CA6121680B6823F0C003E269206AC3
:100F0000024313430B6021688B6823F4034323F0EF
:100F1000FF032269E068024313438B602168CB68BA
:100F200023F0FF036269A06902431343CB60226888
:100F3000136843F00103136000202064202384F829
:100F40003D30206384F83E0070BD80F83C30FFF7F0
:100F500085F982E7294B98428CBF0023012399E74A
:100F60004FF4967505FB03F3254DA5FB03539B0931
:100F70000133A6E7A668BEB9431E05EB450CB3FBDB
:100F8000FCF30133C3F30B03B3FA83F35B0943BBF5
:100F9000C6B9431E05EB4505B3FBF5F30133C3F3B7
:100FA0000B0343F40043A3E7431E05EB850C0CEB56
:100FB0008C0CB3FBFCF30133C3F30B03B3FA83F3E1
:100FC0005B09E4E7431E05EB850505EB8505B3FBEF
:100FD000F5F30133C3F30B0343F4404388E70423E1
:100FE00086E7012384E7012070470120ACE700BFBA
:100FF000A08601007F841E0083DE1B43FF083D00A6
:10100000D34D62102DE9F04385B004460F4691465A
:1010100098460C9EFFF7F4FB054694F83D00C0B2DD
:10102000202804D00227384605B0BDE8F08300959B
:10103000192301224F492046FFF78DFD002840F07B
:10104000928094F83C30012B00F08F80012384F8CB
:101050003C3023681A6812F0010F03D11A6842F07D
:1010600001021A602268136823F4006313602123CD
:1010700084F83D30102384F83E3000232364C4F804
:101080002490A4F82A80638D23853B4BE3622B4692
:10109000324639462046FFF71FFE0746002866D134
:1010A0000023039323685A6903929B690393039B6C
:1010B00011E0236C042B01D00127B4E722681368E8
:1010C00043F400731360F7E72A4631462046FFF7E2
:1010D0008CFE00282ED1238D002B36D02A46314697
:1010E0002046FFF753FE0028E3D1626A2368127896
:1010F0001A61606A431C6362618D89B2013989B2E9
:101100006185238D013B9BB223852268516911F0D3
:10111000040FD9D0002BD7D043781361636A013311
:101120006362638D9BB2013B9BB26385238D013B60
:101130002385C9E7236C042B01D0012773E72268BC
:10114000136843F400731360F7E72268136843F4ED
:1011500000731360202384F83D30002384F83E3070
:1011600084F83C305FE702275DE702275BE7012751
:1011700059E700BF020010000000FFFF82B0084BDB
:101180001B68084AA2FB03235B0A00FB03F30193DD
:1011900000BF019B5A1E0192002BF9D102B070478B
:1011A00000000020D34D6210002800F0F18170B5DE
:1011B00082B00446036813F0010F2CD0994B5B6892
:1011C00003F00C03042B1DD0964B5B6803F00C035B
:1011D000082B12D06368B3F5803F41D0002B55D166
:1011E00003F1804303F504331A6822F480321A6055
:1011F0001A6822F480221A6037E08A4B5B6813F485
:10120000803FE7D0874B1B6813F4003F03D063682F
:10121000002B00F0BF81236813F0020F75D0814BC3
:101220005B6813F00C0F5FD07E4B5B6803F00C0320
:10123000082B54D02369002B00F08A807A4B0122BE
:101240001A60FFF7DDFA0546764B1B6813F0020FB4
:1012500075D1FFF7D5FA401B0228F5D903209EE18E
:10126000704A136843F480331360636843B3FFF735
:10127000C7FA05466B4B1B6813F4003FCBD1FFF751
:10128000BFFA401B6428F5D9032088E1B3F5A02FED
:1012900009D0644B1A6822F480321A601A6822F46A
:1012A00080221A60E1E703F18043A3F53C331A681A
:1012B00042F480221A601A6842F480321A60D4E73D
:1012C000FFF79EFA0546574B1B6813F4003FA2D068
:1012D000FFF796FA401B6428F5D903205FE1514BD4
:1012E0005B6813F4803FA5D14E4B1B6813F0020FCF
:1012F00003D02369012B40F04F814A4A136823F041
:10130000F803616943EAC1031360236813F0080F0F
:1013100033D0A369002B5CD0434B0122C3F8802457
:10132000FFF76EFA05463F4B5B6A13F0020F21D1BF
:10133000FFF766FA401B0228F5D903202FE1394A4E
:10134000136823F0F803616943EAC1031360DCE723
:10135000354B00221A60FFF753FA0546314B1B68E4
:1013600013F0020FD1D0FFF74BFA401B0228F5D93A
:10137000032014E10120FFF701FF236813F0040F9D
:1013800000F09680274BDB6913F0805F34D1254B4A
:10139000DA6942F08052DA61DB6903F0805301932D
:1013A000019B0125214B1B6813F4807F26D0E36845
:1013B000012B3DD0002B53D103F1804303F50433BF
:1013C0001A6A22F001021A621A6A22F004021A62F0
:1013D00033E0154B0022C3F88024FFF711FA0546CD
:1013E000104B5B6A13F0020FC7D0FFF709FA401BDE
:1013F0000228F5D90320D2E00025D3E70B4A136871
:1014000043F480731360FFF7FBF90646074B1B6834
:1014100013F4807FCBD1FFF7F3F9801B6428F5D953
:101420000320BCE000100240000042420070004077
:101430005F4A136A43F001031362E36833B3FFF7B3
:10144000DFF906465A4B1B6A13F0020F2FD1FFF744
:10145000D7F9801B41F288339842F3D903209EE0EC
:10146000052B09D0524B1A6A22F001021A621A6A3D
:1014700022F004021A62E0E74D4B1A6A42F00402BD
:101480001A621A6A42F001021A62D6E7FFF7B8F947
:101490000646474B1B6A13F0020F08D0FFF7B0F95E
:1014A000801B41F288339842F3D9032077E0E5B9F5
:1014B000E369002B72D03E4A526802F00C02082AFF
:1014C00056D0022B17D03B4B00221A66FFF798F933
:1014D0000446374B1B6813F0007F47D0FFF790F9A5
:1014E000001B0228F5D9032059E0314AD36923F0C3
:1014F0008053D361DCE72F4B00221A66FFF780F997
:1015000005462B4B1B6813F0007F06D0FFF778F9D8
:10151000401B0228F5D9032041E0236AB3F5803F40
:101520001AD023494B6823F47413226A606A024379
:1015300013434B601F4B01221A66FFF761F9044603
:101540001B4B1B6813F0007F0ED1FFF759F9001BEE
:101550000228F5D9032022E0154A536823F400330A
:10156000A1680B435360DCE7002018E0002016E080
:10157000012B16D00E4B5B6803F48031226A914236
:1015800011D103F47013626A93420ED1002006E079
:1015900001207047012002E0012000E0002002B09D
:1015A00070BD0120FBE70120F9E70120F7E700BF4C
:1015B00000100240000042420F4B5B6803F00C0237
:1015C000082A01D00D487047C3F383420C49885C58
:1015D00013F4803F0BD0084B5B68C3F34043094AC8
:1015E000D35C064A02FB00F0B0FBF3F07047064BF9
:1015F00003FB00F0704700BF0010024000127A00A9
:101600003C2100083821000800093D00002800F0B6
:10161000A08070B50D460446524B1B6803F00703CB
:101620008B420BD24F4A136823F007030B4313601E
:10163000136803F007038B4240F08D80236813F09A
:10164000020F17D013F0040F04D0474A536843F435
:10165000E0635360236813F0080F04D0424A5368D4
:1016600043F460535360404A536823F0F003A16889
:101670000B435360236813F0010F31D06368012BD3
:1016800020D0022B25D0384A126812F0020F64D005
:1016900035494A6822F0030213434B60FFF7B0F864
:1016A0000646314B5B6803F00C036268B3EB820FB4
:1016B00016D0FFF7A5F8801B41F288339842F0D985
:1016C000032045E0284A126812F4003FE0D10120CF
:1016D0003EE0254A126812F0007FD9D1012037E0A0
:1016E000204B1B6803F00703AB420AD91D4A13685D
:1016F00023F007032B431360136803F00703AB4287
:101700002DD1236813F0040F06D0174A536823F431
:10171000E063E1680B435360236813F0080F07D0C0
:10172000114A536823F46053216943EAC1035360AB
:10173000FFF742FF0C4B5B68C3F303130B4AD35C08
:10174000D8400B4B18600B4B1868FFF715F80020BA
:1017500070BD012070470120FAE70120F8E7012061
:10176000F6E700BF002002400010024028210008D8
:101770000000002008000020014B1868704700BFDF
:101780000000002008B5FFF7F7FF044B5B68C3F3C8
:101790000223034AD35CD84008BD00BF00100240BA
:1017A0002021000808B5FFF7E7FF044B5B68C3F38F
:1017B000C223034AD35CD84008BD00BF00100240DA
:1017C0002021000830B4026A036A23F00103036297
:1017D0004568836923F073030C681C4322F00202FE
:1017E0008B6813430B4A904206D0456084614A6877
:1017F0004263036230BC704723F00803CA681A438F
:1018000022F0040325F440754A692A438D69154383
:10181000EBE700BF002C014030B4036A026A22F4F7
:10182000807202624468C26922F073020D68154337
:1018300023F400738A6843EA02230D4A904206D0DB
:101840004460C5614A68C263036230BC704723F4D8
:101850000063CA6843EA022323F4806324F44054FB
:101860004A6944EA02148A6944EA0214E8E700BFBC
:10187000002C014030B4036A026A22F480520262F2
:101880004468C26922F4E6420D6842EA052223F464
:1018900000538D6843EA0533074DA84206D04460E3
:1018A000C2614A680264036230BC704724F4804419
:1018B0004D6944EA8514F2E7002C014010B4036A34
:1018C000046A24F001040462846924F0F00C4CEAF8
:1018D000021223F00A030B438261036210BC7047BB
:1018E00010B4036A046A24F010040462846924F4C6
:1018F000704C4CEA023223F0A00343EA01138261E8
:10190000036210BC7047836823F070030B4343F0FD
:10191000070383607047704703681B4A90420AD0F0
:10192000B0F1804F07D0A2F59432904203D002F577
:101930008062904203D123F070034A681343124A35
:1019400090420AD0B0F1804F07D0A2F59432904275
:1019500003D002F58062904203D123F44073CA6839
:10196000134323F080034A69134303608B68C36207
:101970000B688362044B984202D001234361704795
:101980000B690363F9E700BF002C014040B310B5B9
:10199000044690F83D30F3B1022384F83D302146EF
:1019A00051F8040BFFF7B8FF012384F8463084F8A0
:1019B0003E3084F83F3084F8403084F8413084F879
:1019C000423084F8433084F8443084F8453084F859
:1019D0003D30002010BD80F83C30FEF7A1FDDBE774
:1019E0000120704740B310B5044690F83D30F3B184
:1019F000022384F83D30214651F8040BFFF78CFF99
:101A0000012384F8463084F83E3084F83F3084F86F
:101A1000403084F8413084F8423084F8433084F810
:101A2000443084F8453084F83D30002010BD80F803
:101A30003C30FFF770FFDBE70120704730B4036AEA
:101A4000026A22F0100202624468826922F4E642CD
:101A50000D6842EA052223F020038D6843EA05134E
:101A60000C4DA84206D0446082614A6882630362DA
:101A700030BC704723F08003CD6843EA051323F0A0
:101A8000400324F440644D6944EA85048D6944EAC6
:101A90008504E8E7002C014038B590F83C30012B74
:101AA00066D004460D46012380F83C300C2A5AD8F3
:101AB000DFE802F0075959591B59595930595959FA
:101AC00044000068FFF77EFE2268936943F0080334
:101AD00093612268936923F00403936122689369F8
:101AE00029690B43936100203EE00068FFF7A6FFE1
:101AF0002268936943F4006393612268936923F435
:101B00008063936122689369296943EA01239361A1
:101B1000002029E00068FFF77FFE2268D36943F0C8
:101B20000803D3612268D36923F00403D3612268D8
:101B3000D36929690B43D361002015E00068FFF7E2
:101B400099FE2268D36943F40063D3612268D369A4
:101B500023F48063D3612268D369296943EA0123AE
:101B6000D361002000E00120002384F83C3038BD20
:101B70000220FCE710B4846824F47F4C42EA03227C
:101B80000A4342EA0C02826010BC704790F83C3075
:101B9000012B78D010B50446012380F83C30022395
:101BA00080F83D300268936823F47F4323F0770385
:101BB00093600B68602B4CD023D8402B54D011D8A5
:101BC000202B03D00AD80BB1102B05D11946206861
:101BD000FFF799FE002028E0012026E0302BF5D009
:101BE000012022E0502B0AD1CA6849680068FFF73B
:101BF00065FE50212068FFF786FE002015E00120D9
:101C000013E0B3F5805F3AD0B3F5005F14D0702BCA
:101C100037D1CB684A6889680068FFF7ABFF226854
:101C2000936843F0770393600020012384F83D30EC
:101C3000002384F83C3010BDCB684A68896800688E
:101C4000FFF798FF2268936843F480439360002075
:101C5000EBE7CA6849680068FFF742FE6021206828
:101C6000FFF751FE0020E0E7CA6849680068FFF707
:101C700025FE40212068FFF746FE0020D5E7002022
:101C8000D3E70120D1E70220704701F01F014FF098
:101C9000010C0CFA01FC036A23EA0C030362036AD9
:101CA0008A4013430362704710B50446084651BB8F
:101CB00094F83E30DBB2013B18BF0123002B5BD10F
:101CC000002839D1022384F83E30012201462068E1
:101CD000FFF7DBFF23682A4A93423DD02368284A56
:101CE00093423ED0B3F1804F3BD0A2F59432934261
:101CF00037D002F58062934233D01A6842F0010275
:101D00001A60002039E0042908D008290DD094F881
:101D10004130DBB2013B18BF0123CFE794F83F30DD
:101D2000DBB2013B18BF0123C8E794F84030DBB2B7
:101D3000013B18BF0123C1E7042805D0082807D0BC
:101D4000022384F84130C0E7022384F83F30BCE727
:101D5000022384F84030B8E75A6C42F400425A64D7
:101D6000BCE79A6802F00702062A07D01A6842F018
:101D700001021A60002000E0012010BD0020FCE7F5
:101D8000002C014090F83C20012A2CD010B40346CE
:101D9000012280F83C20022280F83D200268506831
:101DA000946820F0700C086840EA0C0050601A68D3
:101DB0000E4882420AD0B2F1804F07D0A0F594308D
:101DC000824203D000F58060824204D124F0800476
:101DD000496821439160012283F83D20002083F867
:101DE0003C0010BC70470220704700BF002C01402F
:101DF000024690F83C30012B21D0012380F83C3082
:101E0000CB6823F440738868034323F480634868F5
:101E1000034323F400630868034323F480530869F1
:101E2000034323F400534869034323F48043C969FF
:101E30000B4311684B64002082F83C00704702207D
:101E40007047000010B504460268136923F440533C
:101E5000C1680B43136183680269134342691A43E3
:101E60000168CB6823F4B05323F00C031343CB6019
:101E70000268536923F4407381690B43536102681C
:101E8000134B9A4220D0FFF77DFC024602EB820200
:101E900002EB820263689B00B2FBF3F20D48A0FBE9
:101EA00002314909642303FB11231B013233A0FBD8
:101EB00003035B0903F0F00202EB011203F00F03CE
:101EC000216813448B6010BDFFF76CFC0246DDE710
:101ED000003801401F85EB5160B310B5044690F8FF
:101EE000413013B3242384F841302268D36823F4AB
:101EF0000053D3602046FFF7A5FF2268136923F43F
:101F0000904313612268536923F02A0353612268C6
:101F1000D36843F40053D36000206064202384F826
:101F2000413084F84230606310BD80F84030FEF7E5
:101F3000C3FBD7E70120704770B5860747D0541E12
:101F4000002A3ED00346CAB201E0013C39D303F86F
:101F5000012B9D07F9D1032C2CD9CDB205EB05251A
:101F60000F2C1A4605EB054534D9A4F1100C2CF0C2
:101F70000F0603F1100EB6444FEA1C1CC2E90055CF
:101F8000C2E9025510327245F8D10CF1010214F089
:101F90000C0F03EB021204F00F0C13D0ACF104038E
:101FA00023F003030433134442F8045B9342FBD150
:101FB0000CF003042CB1C9B21C4403F8011BA3426A
:101FC000FBD170BD64461346002CF4D1F9E70346FB
:101FD0001446C0E7A446E1E770B50F4B0F4DAB4286
:101FE000A3EB050607D00024B61055F8043B0134D6
:101FF0009847A642F9D800F07FF8094D094B5E1BBF
:10200000AB424FEAA60606D0002455F8043B013443
:102010009847A642F9D870BD4C2100084C21000811
:102020004C21000854210008704700BF704700BFD2
:10203000024B13B1024800F005B8704700000000E1
:1020400051200008002301461A46184600F014B833
:1020500038B5074D074C2C1BA41005D0013C55F892
:10206000043D9847002CF9D1BDE8384000F04AB84B
:1020700058210008542100082DE9F8431B4D06465D
:10208000286898460F469146FFF7CEFF184B1C680C
:102090001CB3286865681F2D22DC4EB96B1C023505
:1020A000636044F82570FFF7C1FF0020BDE8F883A6
:1020B000012304EB8501C1F88890D4F88821AB4056
:1020C0001A43022EC4F88821C1F80881E6D1D4F859
:1020D0008C211A43C4F88C21E0E7064C1C60D8E739
:1020E000FFF7A4FF4FF0FF30E0E700BF0C00002037
:1020F000180100201C010020F8B500BFF8BC08BC86
:102100009E467047F8B500BFF8BC08BC9E467047B5
:1021100040AAAAAAAAAAAAAAAAAAAAAAAA00000087
:1021200000000000010203040000000000000000A5
:102130000102030406070809010200000203040566
:0C214000060708090A0B0C0D0E0F10100A
:08214C0031200008B901000870
:0421540091010008ED
:102158000024F40001000000100000001401002019
:040000050800072DBB
:00000001FF
